S00A00006F732E7372656338
S11300001DC137C136C177C334C133C132C196C3B0
S113001030C12FC12EC12DC12CC12BC12AC129C170
S113002028C103C426C11CC461C460C45FC45EC4C7
S11300305DC45CC45BC414C459C458C457C456C416
S113004055C454C453C40EC451C450C44FC44EC444
S11300504DC44CC44BC44AC449C448C447C446C430
S113006045C444C443C4FEC341C440C43FC43EC4A5
S11300703DC43CC43BC43AC439C438C437C436C490
S113008035C434C433C42FC431C430C42FC42EC4C3
S11300902DC42CC42BC40AC429C428C427C426C410
S11300A025C424C423C422C421C420C41FC41EC420
S11300B01DC41CC41BC4EFC319C418C417C416C47C
S11300C015C414C413C402C4E6C4F1C4F7C402C5FD
S11300D008C513C519C534C837C83AC83DC840C88F
S11300E043C846C8AAC8ADC8B0C8B3C8B6C8B9C81A
S11300F0BCC8456E746572204461746500456E74B5
S113010065722054696D65002020536174757264B2
S11301106179002020467269646179002020546866
S11301207572736461790020205765646E65736429
S11301306179002020547565736461790020204D35
S11301406F6E64617900202053756E646179004399
S1130150686F73652044617900202053617475725F
S1130160646179002020467269646179002020541A
S1130170687572736461790020205765646E6573D5
S113018064617900202054756573646179002020CE
S11301904D6F6E64617900202053756E646179003F
S11301A0484541542050524F47004D454E553A0062
S11301B04D454E553A00DC01DC01150200000544B2
S11301C0617461000000000000B601B60115020070
S11301D0000444617900000000000000C901C90165
S11301E0150200000354696D65000000000000154D
S11301F0020202150200000854696D650000000047
S11302000000EF0115021502000009486561740041
S113021000000000000202EF011502DC010053653A
S11302207474696E67730000000000000000000031
S113023000000000000000000000000011241FBEA8
S1130240CFE5D4E0DEBFCDBF10E0A0E6B0E0E2E948
S1130250F7E102C005900D92AC36B107D9F723E05F
S1130260ACE6B0E001C01D92AE3BB207E1F723DA81
S11302708ECAC6CE08953091780032953F70209191
S11302807900422F4295407F842F832B22952F7033
S113029030917A003295307F932F922B01968C33D4
S11302A09105D0F4E8E7F0E0382F3295307F2081D3
S11302B02F70232B2083292F2295207F82958F70E6
S11302C0822B80937900EAE7F0E092959F70808119
S11302D0807F892B80830CC0E8E7F0E080818F70F9
S11302E0808310927900EAE7F0E08081807F808348
S11302F08091780081FF05C0E8E7F0E08D7F80837E
S113030005C0E8E7F0E080818260808381E00895A1
S11303109FB7F894209196002034F0F42091960031
S113032030E0F901EE0FFF1F2E0F3F1FF901E956D0
S1130330FF4F728361832091960030E0F901EE0F44
S1130340FF1F2E0F3F1FF901E956FF4F8083809155
S113035096008F5F809396009FBF0895CF939091EE
S11303609600992309F45AC0CFB7F8949091960057
S113037091500AF452C0292F092E000C330BF901B5
S1130380EE0FFF1FE20FF31FE956FF4F40814813A2
S113039041C0F901EE0FFF1FE20FF31FE956FF4FB3
S11303A04181528146175707A9F54091960050E0C4
S11303B041505109241735073CF5A9014F5F5F4FA0
S11303C0FA01EE0FFF1FE40FF51FE956FF4F80817E
S11303D0D901AA0FBB1F2A0F3B1FD901A956BF4F32
S11303E08C932181328112963C932E9311979F5FB7
S11303F0292F092E000C330B4091960050E04150F8
S1130400510924173507CCF28091960081508093CE
S1130410960003C091500AF0AECFCFBFCF9108959C
S11304204FB7F89420919100309192002F5F3F4F85
S11304302F773327309392002093910020919100DD
S113044030919200F901EE0FFF1F2E0F3F1FF901AB
S1130450E25CFD4F80838091910090919200FC01B9
S1130460EE0FFF1F8E0F9F1FFC01E25CFD4F728396
S1130470618320919100309192008091930090913A
S113048094002817390759F48091930090919400AF
S113049001968F77992790939400809393004FBF90
S11304A00895CF93DF93DA01109711F4B9DF52C0A6
S11304B0DFB7F894C0913C02CF5F90913C0290E08A
S11304C0292F30E047E0949FF0011124E75AFE4FB2
S11304D05081552301F1F901EE0FFF1FEE0FFF1FAD
S11304E0EE0FFF1FE21BF30BE75AFE4F408184130C
S11304F013C0F901EE0FFF1FEE0FFF1FEE0FFF1FDA
S1130500E21BF30BE75AFE4FB483A383B683A583A0
S1130510728361831AC0C92F9F5F20913C022917FF
S113052078F615C097E0C99FF0011124E75AFE4FF1
S1130530808372836183B483A383B683A58380910C
S11305403C028C1710F4C0933C02DFBF03C0C132DD
S113055048F3FBCFDF91CF910895CF93DF93AC01A4
S11305606091580190919500691314C0EA0170E0FC
S113057081E056DFC630D10538F0BE016150710903
S1130580AE0182E08EDF06C045E050E065E070E039
S113059082E087DF80E0DF91CF9108954FB7F89430
S11305A020E030E0F901EE0FFF1FEE0FFF1FEE0F0A
S11305B0FF1FE21BF30BE75AFE4F908198130CC008
S11305C0F901EE0FFF1FEE0FFF1FEE0FFF1FE21BDF
S11305D0F30BE75AFE4F10822F5F3F4F2032310555
S11305E009F7E0913C0287E0E89FF0011124E75A03
S11305F0FE4F8081811118C080913C028823A1F0B4
S113060080913C02815080933C02E0913C0287E05F
S1130610E89FF0011124E75AFE4F8081811104C044
S113062080913C028111ECCF4FBF08950F931F932B
S1130630CF9380913C02C0E08C2F90E027E0C29FD2
S1130640F0011124E75AFE4F20812223A9F1FC0175
S1130650EE0FFF1FEE0FFF1FEE0FFF1FE81BF90B3E
S1130660E75AFE4F23813481232B89F0FC01EE0FDE
S1130670FF1FEE0FFF1FEE0FFF1FE81BF90BE75ADA
S1130680FE4F8381948101979483838315C08C01E9
S1130690000F111F000F111F000F111F081B190B52
S11306A0075A1E4FF801618172818081B9DEF80119
S11306B08581968194838383CF5F80913C028C17DC
S11306C008F0BACFCF911F910F9108951092960020
S11306D010923C0210929400109293001092920097
S11306E0109291008CE085BD8CE783BD89B780684A
S11306F089BF789408951F920F920FB60F92112418
S11307002F933F934F935F936F937F938F939F9315
S1130710AF93BF93EF93FF9389DFFF91EF91BF9165
S1130720AF919F918F917F916F915F914F913F9185
S11307302F910F900FBE0F901F9018951F920F923C
S11307400FB60F9211242F933F934F935F936F93A0
S11307507F938F939F93AF93BF93EF93FF9366DF42
S1130760FF91EF91BF91AF919F918F917F916F9185
S11307705F914F913F912F910F900FBE0F901F905B
S1130780189584FF0AC082FF0AC083FF0AC080FF55
S11307900AC081FF0AC080E0089585E0089581E0E1
S11307A0089582E0089584E0089583E00895CF9346
S11307B0DF93D0913D02D0937C00C0913B02C09363
S11307C03D0283B38F71DDDF80933B02C81310C0F9
S11307D0DC130EC08091950080935801D09395004E
S11307E0D81731F06D2F70E081E01ADE82E0D6DE9A
S11307F080E0DF91CF91089585B38F6185BB84B389
S1130800807E84BB109295001092580167ED73E0CE
S113081083E07EDD6DEA72E082E07ADD41E050E063
S113082061E070E083E03DDE08951F920F920FB601
S11308300F9211242F933F938F939F93AF93BF9362
S1130840EF93FF93F89421B12C7F822F90E0FC0169
S11308503897E135F10508F049C0ED5EFF4F099482
S113086010926C00E0916C0080916F00E81768F4BE
S1130870F0E0E059FF4F808183B985E886BF80911D
S11308806C008F5F80936C0035C08FEF809369009C
S113089084E986BF2FC080916C00E82FF0E093B10B
S11308A0E059FF4F90838F5F80936C0080916F00BD
S11308B020916C0030E090E00197281739071CF470
S11308C085EC86BF17C085E886BF14C0E0916C0034
S11308D0F0E083B1E059FF4F80838FEF809369008C
S11308E084E986BF07C085EA86BF04C020936900F7
S11308F084E086BF7894FF91EF91BF91AF919F916F
S11309008F913F912F910F900FBE0F901F901895CC
S1130910FC01789406B600FCFDCF60936F008081E3
S113092080937000808180FD0EC0623060F031964B
S113093021E030E08191D901A059BF4F8C932F5F02
S11309403F4F2617B8F388EF8093690085EA86BF86
S11309500895789406B600FCFDCF209169002F3FDE
S113096079F4623068F0FC01329621E030E0D9017C
S1130970A059BF4F8C9181932F5F3F4F2617B8F337
S1130980809169000895CF93DF93C0E6D0E081EDB4
S1130990888368E0CE01BCDF000068E0CE01D9DFC7
S11309A0000080ED888362E0CE01B2DF0000DF91B9
S11309B0CF9108951F93CF93DF93C82FD62FE3DFF2
S11309C0F894C230F9F028F4CC2349F0C13099F0FE
S11309D03EC0C43051F110F1C53099F138C0E0E6A1
S11309E0F0E06481862F8F7090E1D99FB0011124CB
S11309F0682B64832CC0E0E6F0E06481607F6D2B9B
S1130A00648325C0E0E6F0E06381862F8F7090E177
S1130A10D99FB0011124682B638319C0E0E6F0E08C
S1130A206381607F6D2B638312C0E0E6F0E0628136
S1130A30862F8F7090E1D99FB0011124682B6283B7
S1130A4006C0E0E6F0E06281607F6D2B6283000007
S1130A50C0E6D0E010ED188365E0CE0159DF000058
S1130A60188362E0CE0154DF00007894DF91CF91C7
S1130A701F9108951F93CF93DF93C82FD62F83DF41
S1130A80F8948C2F90E08730910508F03FC0FC016A
S1130A90EC59FF4F0994E0E6F0E06681862F8F70F1
S1130AA090E1D99FB0011124682B66832FC0E0E642
S1130AB0F0E06681607F6D2B668328C0E0E6F0E09D
S1130AC06781862F8F7090E1D99FB0011124682B24
S1130AD067831CC0E0E6F0E06781607F6D2B67836D
S1130AE015C0E0E6F0E06085862F8F7090E1D99F15
S1130AF0B0011124682B608709C0E0E6F0E060854E
S1130B00607F6D2B608702C0D09365000000C0E653
S1130B10D0E010ED188369E0CE01FADE00001883FE
S1130B20198262E0CE01F4DE00007894DF91CF9167
S1130B301F9108958035E9F058F48032A1F018F43B
S1130B40803119F120C0803381F0803481F01BC0E2
S1130B50803799F018F4803671F015C0803879F038
S1130B60803979F010C082E0089583E0089584E02C
S1130B70089585E0089586E0089587E0089588E063
S1130B80089589E0089580E0089581E0089592B37E
S1130B909C7F92BB9AE19A95F1F700C0929A92B326
S1130BA0982B92BB9AE19A95F1F700C092989AE13A
S1130BB09A95F1F700C092B3892782BB8AE18A959E
S1130BC0F1F700C00895AF92BF92CF92DF92EF92F7
S1130BD0FF920F931F93CF93C82F807681609C2F31
S1130BE09071892B9C2F9078892BD1DFC3FBEE2445
S1130BF0E0F8F12CF694FE2CEE24F794E794C0FB75
S1130C00AA24A0F8B12CC50182959295907F9827CB
S1130C10807F98278160E82AC2FB002700F910E052
S1130C200024169507950794169507950794102F99
S1130C30002D0E29C1FBCC24C0F8D12CC601880F8D
S1130C40991F82959295907F9827807F9827802B73
S1130C509EDF85E08A95F1F70000CF911F910F91F7
S1130C60FF90EF90DF90CF90BF90AF900895CF9317
S1130C70C82F82958F708A3018F4805DA4DF02C07B
S1130C80895CA1DF8C2F8F708A3018F4805D9BDF24
S1130C9002C0895C98DFCF910895CF93C82F8A3022
S1130CA060F080E001C0892FCA5091E0980FCA30EB
S1130CB0D0F7992311F08F5C86DF80E38C0F83DFFC
S1130CC0CF9108958FEF81BB12BA2FE788E391E0AB
S1130CD0215080409040E1F700C0000080E357DFDE
S1130CE08FE097E20197F1F700C0000080E34FDF47
S1130CF08FEC97E00197F1F700C0000080E347DF35
S1130D008FE99FE00197F1F700C0000080E23FDF28
S1130D108FE99FE00197F1F700C0000080E237DF20
S1130D208FE99FE00197F1F700C0000080EC2FDF0E
S1130D308FE99FE00197F1F700C0000080E027DF12
S1130D4080E825DF8FE99FE00197F1F700C00000FC
S1130D5080E01DDF80E11BDF8FE99FE00197F1F761
S1130D6000C0000080E013DF80E611DF8FE99FE020
S1130D700197F1F700C0000080E009DF80EE07DF93
S1130D808FE99FE00197F1F700C000000895CF9329
S1130D90DF93EC012196FC018081882321F013DF8D
S1130DA089918111FCCFDF91CF910895CF93DF9387
S1130DB0EC012196FC018491882331F004DFFE01CB
S1130DC0849121968111FACFDF91CF910895AF924A
S1130DD0BF92DF92EF92FF920F931F93CF93DF9313
S1130DE0D82E662319F080ECD2DE02C080E8CFDE74
S1130DF0D3FAAA24A0F8B12CB694BA2CAA24B79496
S1130E00A794D2FA002700F910E00024169507955C
S1130E100794169507950794102F002D0A298D2DF8
S1130E208170C82F80E0D82FC295D295D07FDC275F
S1130E30C07FDC27C02BD1FAEE24E0F8F12CC701E7
S1130E40880F991F82959295907F9827807F982785
S1130E508C2B9DDEDF91CF911F910F91FF90EF902E
S1130E60DF90BF90AF900895CF93813061F460E03C
S1130E7080E0ADDFC0E180E2A6DEC150E1F760E0D2
S1130E8080E0A5DF14C0823061F461E080E09FDF80
S1130E90C0E180E298DEC150E1F761E080E097DFD5
S1130EA006C0833021F480E072DE80E170DECF91F1
S1130EB0089581E0D9DF60E081E089DFE0913902C3
S1130EC0F0913A023496859194918852924021F49B
S1130ED080EB91E06BDF03C08AEA91E067DF82E098
S1130EE0C3DF61E082E073DF8091390290913A02BE
S1130EF009965CDF81E008958530910509F44DC0C1
S1130F0030F48330910559F0049741F192C0883050
S1130F10910509F47EC0099709F45EC08AC06CE7A4
S1130F2077E081E01BDA48EC50E060E070E081E0BB
S1130F30B8DA48EC50E060E070E086E0B2DA67E7E7
S1130F4079E081E0E5D96BE371E089E0E1D948EE2D
S1130F5053E060E070E089E0A4DA6BC06CE777E00E
S1130F6081E0FCD948EC50E060E070E081E099DA7F
S1130F7048EC50E060E070E086E093DA69EF78E0F6
S1130F8081E0C6D96BE371E089E0C2D948EE53E051
S1130F9060E070E089E085DA4CC06CE777E081E0DE
S1130FA0DDD948EC50E060E070E081E07ADA48ECAA
S1130FB050E060E070E086E074DA65E87AE081E0B1
S1130FC0A7D96BE371E089E0A3D948EE53E060E070
S1130FD070E089E066DA2DC082E046DF61E083E0FC
S1130FE0F6DE80EA91E0E2DE6BE371E089E090D91D
S1130FF048EE53E060E070E089E053DA69ED78E0B0
S113100081E086D948EC50E060E070E081E049DAA4
S113101010C048EC50E060E070E081E042DA48EC57
S113102050E060E070E086E03CDA63E878E081E07C
S11310306FD981E0089522E08832920721F09093DD
S11310403A028093390208958230910501F138F40F
S1131050009709F443C0019709F435C03CC08430BB
S1131060910521F060F0059791F035C0E0913902C7
S1131070F0913A02329685919491DDDF2CC0E09193
S11310803902F0913A0285919491D5DF24C0809180
S1131090390290913A02FC013896E491EE2369F00A
S11310A06E2F70E085E0BCD964E278E081E056D927
S11310B069E577E087E052D911C0FC013696859145
S11310C09491B9DF08C0E0913902F0913A02349664
S11310D085919491B0DF80E090E0EBDE81E00895AB
S11310E085E192E090933A028093390280E090E0A7
S11310F0E0DE64E278E081E00BD969E577E087E03F
S113110007D980E008950F931F93CF93DF938C0149
S113111081E0AADE60E081E05ADEC0E6D0E08E81A4
S1131120A6DD8F81A4DD8885A2DDED818E2F90E080
S1131130FC013197E730F105B8F5E559FF4F099403
S113114087E991E033DE17C08EE891E02FDE13C00B
S113115084E891E02BDE0FC088E791E027DE0BC026
S11311608DE691E023DE07C084E691E01FDE03C034
S113117089E591E01BDE82E077DE61E084E027DE32
S1131180C0E6D0E08C8173DD8B8171DD8A816FDDF7
S11311900130110549F463E878E081E0DFD881E0AB
S11311A0FDD986E0FBD99CDFDF91CF911F910F9190
S11311B00895CF93DF93EC0181E056DE60E085E093
S11311C006DE9091780092959F70809179008295C7
S11311D0807F892B62DD219749F469ED78E081E015
S11311E0BDD881E0DBD989E0D9D97ADFDF91CF910D
S11311F00895CF93DF93EC0181E036DE82E034DEA4
S113120060E081E0E4DD8FE491E0D0DD80916D0069
S1131210811103C081E080936D0061E082E0D7DD3D
S1131220E0916D008E2F90E0FC013197E730F105DD
S113123008F05AC0EE58FF4F099486E491E0B6DDF9
S113124017C08DE391E0B2DD13C083E391E0AEDD1E
S11312500FC087E291E0AADD0BC08CE191E0A6DD2E
S113126007C083E191E0A2DD03C088E091E09EDD48
S1131270C330D105D1F030F4C130D10541F122970A
S113128009F130C0C430D10519F02597D9F02AC02E
S113129080916D00815080936D0080916D0081116B
S11312A021C087E080936D001DC080916D008F5F29
S11312B080936D0080916D008830A0F081E0809370
S11312C06D0010C060916D0086E0D4DB0BC06AE352
S11312D071E081E043D881E061D986E05FD989E09B
S11312E05DD9FEDE81E000C0DF91CF9108950F93B8
S11312F01F93CF93DF938C0181E0B6DD82E0B4DDF0
S113130060E081E064DD8DEF90E050DD61E084E039
S11313105EDDC0E6D0E08C81AADC8B81A8DC8A810A
S1131320A6DC80916D008230B1F128F4882359F055
S1131330813009F1E5C0843009F44DC0E0F1853015
S113134009F459C0DDC080916E00833014F010920E
S11313506E0061E084E03BDD80917B00882321F016
S113136080916E009ADC03C08AE690E010DD61E0B3
S113137084E02DDD4FC080916E008A3014F010920D
S11313806E0061E085E023DD80916E0086DC61E023
S113139085E01DDD3FC080916E00863014F0109210
S11313A06E0061E086E013DD80916E0076DC61E022
S11313B086E00DDD2FC080916E008A3014F010920B
S11313C06E0061E087E003DD80916E0066DC61E021
S11313D087E0FDDC1FC080916E00863014F010920F
S11313E06E0061E088E0F3DC80916E0056DC61E021
S11313F088E0EDDC0FC080916E008A3014F010920A
S11314006E0061E089E0E3DC80916E0046DC61E01F
S113141089E0DDDC0330110509F454C048F40130DF
S1131420110509F460C00230110509F456C066C004
S11314300430110529F00530110509F44EC05EC0D1
S113144080916D008F5F80936D0080916D00863078
S113145010F010926D0080916D008230C9F028F474
S1131460882349F0813071F049C08430F1F0B8F03C
S1131470853011F143C080916400807F5BDB8093F1
S11314806E003CC0809164008F7080936E0036C003
S113149080916300807F4EDB80936E002FC080912B
S11314A063008F7080936E0029C080916200807FFA
S11314B041DB80936E0022C0809162008F70809324
S11314C06E001CC080916E008F5F8A301CF4809384
S11314D06E0014C010926E0011C080916D00609176
S11314E06E0068DA0BC06AE371E081E037D781E00F
S11314F055D886E053D889E051D8F2DD81E000C0A8
S1131500DF91CF911F910F9108950F931F93CF9364
S1131510DF938C0181E0A8DC82E0A6DC60E081E05E
S113152056DC82EF90E042DC61E084E050DCC0E60F
S1131530D0E08E819CDB8F819ADB888598DB80915B
S11315406D00823071F128F4882359F08130C9F09C
S1131550ADC0843009F445C0A0F1853009F451C010
S1131560A5C080916E00843014F010926E0061E08A
S113157084E02DDC80916E0090DB61E084E027DC68
S11315804FC080916E008A3014F010926E0061E0BA
S113159085E01DDC80916E0080DB61E085E017DC76
S11315A03FC080916E00823014F010926E0061E0B2
S11315B086E00DDC80916E0070DB61E086E007DC84
S11315C02FC080916E008A3014F010926E0061E09A
S11315D087E0FDDB80916E0060DB61E087E0F7DB94
S11315E01FC080916E008A3014F010926E0061E08A
S11315F088E0EDDB80916E0050DB61E088E0E7DBA2
S11316000FC080916E008A3014F010926E0061E079
S113161089E0DDDB80916E0040DB61E089E0D7DBAF
S113162003301105D1F038F40130110591F1023085
S11316301105F1F039C00430110521F00530110510
S1131640B9F032C080916E0081501AF080936E0020
S11316502BC089E080936E0027C080916E008F5F5D
S11316608A301CF480936E001FC010926E001CC060
S113167080916D0060916E00FDD980916D008F5F47
S113168080936D0080916D00863070F010926D0033
S11316900BC06AE371E081E061D681E07FD786E028
S11316A07DD789E07BD71CDD81E000C0DF91CF913D
S11316B01F910F9108950AD89FD804DB11DD63D9D7
S11316C06CE777E085E024D663EC74E086E020D60E
S11316D02091910030919200809193009091940018
S11316E028173907A9F32FB7F894809193009091A4
S11316F0940001968F779927909394008093930098
S11317008091930090919400FC01EE0FFF1F8E0FC7
S11317109F1FFC01E25CFD4FC0818091930090917A
S11317209400FC01EE0FFF1F8E0F9F1FFC01E25C73
S1131730FD4F018112812FBFCC2351F2809196007D
S1131740882331F2D0919600D1500AF4C1CF8D2F65
S11317500D2E000C990BFC01EE0FFF1FE80FF91F73
S1131760E956FF4F2081C2130FC0FC01EE0FFF1F8B
S11317708E0F9F1FFC01E956FF4F0180F281E02D7F
S1131780C80109958111A4CFD1500AF7A1CFF894CB
S1051790FFCF85
S10F1792D10000000000000000F87A0004
S9030000FC
